:020000041000EA
:1000000000B5324B212058609868022188439860DF
:10001000D860186158612E4B002199600221596106
:100020000121F02299502B49196001219960352056
:1000300000F044F80222904214D00621196600F024
:1000400034F8196E01211966002018661A6600F04E
:100050002CF8196E196E196E052000F02FF8012189
:100060000842F9D1002199601B49196000215960AB
:100070001A491B48016001219960EB211966A021F2
:10008000196600F012F800219960164914480160C1
:100090000121996001BC002800D000471248134993
:1000A000086003C880F30888084703B5996A0420EC
:1000B0000142FBD001200142F8D103BD02B5186610
:1000C0001866FFF7F2FF186E186E02BD00000240BE
:1000D000000000180000070000035F00212200005C
:1000E000F4000018222000A00001001008ED00E03C
:1000F00000000000000000000000000074B24E7A12
:1001000000200420F7010010C3010010C5010010F9
:10011000C1010010C1010010C1010010C101001097
:10012000C1010010C1010010C1010010C701001081
:10013000C1010010C1010010C9010010CB01001065
:10014000CD010010CD010010CD010010CD01001037
:10015000CD010010CD010010CD010010CD01001027
:10016000CD010010CD010010CD010010CD01001017
:10017000CD010010CD010010CD010010CD01001007
:10018000CD010010CD010010CD010010CD010010F7
:10019000CD010010CD010010CD010010CD010010E7
:1001A000CD010010CD010010CD010010CD010010D7
:1001B000CD010010CD010010CD010010CD010010C7
:1001C00000BE00BE00BE00BE00BE00BE00F04BF888
:1001D000103800BEF2EB887190880010B4880010CF
:1001E0003402001090A31AE700202149086006C8D5
:1001F00081F3088810471F48006800282FD10DA4FC
:100200000ECC002902D000F012F8F9E71A491B4A77
:10021000002000E001C19142FCD1194988471949E9
:1002200088471949884700BEFDE701C901C29A42C3
:10023000FBD37047B4880010C0000020000A0020E3
:10024000F49100100000042000000420F49100103C
:1002500000100420001004200000000070470B482C
:1002600003F02EFF0047EFF30580C0B27047000097
:1002700008ED00E0000000D0000A0020D0AB022012
:100280003138001049100010313900105756000065
:1002900006005250ABB36053A887001006005250BE
:1002A000861C0302B8870010060052505422A29DFB
:1002B000C487001005005250DE65F468F491001008
:1002C000F8B5C04610B5064C2378002B07D1054B76
:1002D000002B02D0044800E000BF0123237010BDB2
:1002E000300F002000000000C8510010044B10B572
:1002F000002B03D00349044800E000BF10BDC046F6
:1003000000000000340F0020C8510010F0B5C646B0
:1003100000B52E4D2E4E2B783478A3422CD0620897
:10032000013A9A4210DD2B4B19682B4B1B681B04BA
:100330004B402A4A1B0C1B0413602B7801332B7093
:10034000012080BCB846F0BD9A4212D0013C9C42CC
:100350000FDC0ED007221100214B1B7819401A42E6
:10036000EED11C4B1D4A1B681B0C1B04136029702B
:10037000E6E7184B1B68DCE71A4F3B78002B22D0CE
:10038000174BFA201B7800019846174B197801315A
:1003900003F0C8FE072243464146C4B23470002031
:1003A00013400A4209D0013B9800C01806214003BF
:1003B00003F0E0FE0D4B9C466044074B18600023A1
:1003C0002B703B70ABE72300A9E7C046CCAB022003
:1003D000CDAB022098000540B8AB02209810054034
:1003E000C9AB0220CAAB0220C6AB0220FF5F0000EF
:1003F00010B502F087F902F037FF002916D0FA2273
:100400000023920003F0F8FEFA210C4A4900136819
:10041000C31A8B4209DB0A490B68082B0BD0013346
:100420000B600121074B1060197010BDFA21890083
:1004300003F0A0FEE8E70123F2E7C046807B02203C
:1004400000050020C0AB022010B504001F2102F0FF
:10045000EDF800222000002102F000F90021200028
:1004600002F05EF910BDC046D42310B5154CFF3321
:100470002360154B2000636080235B04A360134B53
:100480001E22E360002323616361FF33238310494D
:100490001A3004F073F920003C220E49383004F081
:1004A0006DF9200000220C4B78306367231D02CBCE
:1004B0004A408342FBD113045A4013025A40A267B8
:1004C00010BDC046740F00200500231C000F06FE5F
:1004D0002C5200104C520010AE01F401D42310B580
:1004E000154CFF332360154B20006360E0231B0590
:1004F000A360134B1E22E360124B13492361134B7D
:100500001A306361FF23238304F038F920003C2272
:100510000F49383004F032F9200000220D4B7830BA
:100520006367231D02CB4A408342FBD113045A4028
:1005300013025A40A26710BDF47802200500011C86
:100540007E7E3F400005100088520010000F4100E1
:100550004C52001064008200D42310B5154CFF33B8
:100560002360154B2000636080235B02A360134B64
:100570001E22E360002323616361FF33238310495C
:100580001A3004F0FBF820003C220E49383004F009
:10059000F5F8200000220C4B78306367231D02CB56
:1005A0004A408342FBD113045A4013025A40A267C7
:1005B00010BDC046707902200500021C04500000E6
:1005C000A85200104C520010C80040068322104B65
:1005D00070B51A600F4AFF265A60802292049A6012
:1005E00000220D201A620C4A0C4D0D4C72406A40DC
:1005F0000C4962404240D96151400A044A4011020C
:100600004A40DE601D615C6198615A6270BDC046FF
:10061000C46002200800010708000105FF00FE0079
:100620000100FD00C8001F003322064B1A60064A75
:100630005A608022D2049A60044ADA60044A1A613D
:100640007047C046B0100020080001022F1F1000A4
:100650002738292F33220A4B0A491A600A4A5A605E
:10066000802252029A60094A9A813B229A73DA6880
:1006700051400A044A4011024A401A617047C0467C
:1006800010650220080003020800020210C0FFFFEC
:100690004322064B1A60064A5A60802252049A602E
:1006A0000022DA60034A1A617047C0465C0F0020DE
:1006B000080023038080808010B5114B114C8022EC
:1006C0002360114B9204636000232000A260E3606A
:1006D000802200219200103004F04AF88422920017
:1006E00094460022231D644402CB4A40A342FBD11E
:1006F00013045A4013025A40044B1A6010BDC046FE
:1007000033080000000A002008000182F060022087
:10071000D022012103201206536852680B40013B8E
:1007200083439A485208844670B56344114201D10C
:1007300002229343D02212065268D20601D4944A70
:100740001340D02212065268920601D4914A1340F7
:10075000D02212065268520601D410229343D022AE
:1007600012065268120601D420229343D0221206A8
:100770005268D20501D440229343D0221206526817
:10078000920501D480229343D0221206526852056A
:1007900001D408229343E0217F4C804AA38113684F
:1007A000C9010B407E490B6004217E4B1960FC316E
:1007B00013680B42FCD07C4D50682B6800051A0072
:1007C0000F3A000E904206D919000F31884202D22A
:1007D000802323740DE0984200D392E06B68D2B27C
:1007E000191FC9B2401AC301181A511A03F09AFC12
:1007F00020748023694A5B0111684B40E021C901E4
:100800000B4067490B600421664B1960FC3113688B
:100810000B42FCD0EB6850681A0000050F3A000E3E
:10082000904200D87FE019000F31884200D37AE06F
:10083000802363748023594A9B0111684B40E02157
:10084000C9010B4056490B600421564B1960FC311D
:1008500013680B42FCD05368AA691B050F3A0021AC
:100860001B0E93420DD8E969D2B20439C9B25B1AA2
:10087000D801C01A511A400003F054FC0130C143A2
:10088000C9B2C023454AE17311689B014B40E02186
:10089000C9010B4042490B600421424B1960FC31F5
:1008A00013680B42FCD053682A6A1B0511000F39EC
:1008B0001B0E8B4245D90023A3733F216268A368B6
:1008C0005340E2685340226953401A0453401A02CD
:1008D00053406361354B9A788A4353B2A2790A40F8
:1008E0001A43A27162791140A022D20594460622D1
:1008F0000B4363712E4B1B689B0163441C60DA61E0
:1009000070BD984200D874E70F33DBB2C01A820181
:10091000101AAA684000111DC9B2C91A03F002FCDE
:100920007F38207465E798421DD22B69D2B2191F17
:10093000C9B2401AC301181A511A03F0F3FB6074CC
:1009400078E70F329342B8D86A6AC9B2043AD2B291
:100950009B1AD801C01A4000891A03F0E3FB01304A
:10096000C043A073A9E7984200D863E70F33DBB216
:10097000C01A8201101A6A694000111DC9B2C91A51
:1009800003F0D0FB7F38607454E7C046FFFF0000DF
:10099000FFFBFFFFFFFDFFFF5C0F002000C00440D6
:1009A00000D0044000E00440CC780220F460022033
:1009B000EC79022070B5364D041E2B6828D03549DD
:1009C000354A0968D3604B40116119044B403349E3
:1009D0003F20096859401B024B40536101235B4291
:1009E0002B602F4B997881434BB291790140194389
:1009F000917151790840A021C9058C460343537178
:100A0000284B1B689B0163441A600622DA6170BDA3
:100A1000FF210A00244E1A40F3601B0C0B403000EB
:100A200091008022C918214BC901C91892001030C9
:100A300003F0A4FE8422330092000C33B11804CBDF
:100A400054408B42FBD1154B20044440186884234A
:100A5000604024029B004440F45001233F215B424C
:100A60002B600F4B9A788A4353B2B2790A401A43EB
:100A7000B27172791140A022D205944685220B43AF
:100A80007371084B1B689B0163441E60DA61BEE70B
:100A900008050020580F0020180C0020F0600220EC
:100AA000F4600220EC790220000A0020C4600020DB
:100AB00010B504040002000EA40B24180948E40138
:100AC0008022201803F05AFE0123240BA340064A7B
:100AD00011680B4313600022044B1A60044B083268
:100AE0001A7010BDC4600020247502200405002087
:100AF000BFAB022070B5411E012805D08F48C378D6
:100B00005A1C9200914201D0002070BD3F244178D0
:100B1000857821402C404170847020290BD0012918
:100B200000D18FE00229EFD101780E29ECD8844C56
:100B3000890061588F4600228256082A26D013DC8D
:100B4000012A1FD0052ADFD11C2BDDD143681BBA37
:100B5000436083681BBA8360C3681BBAC3600369C0
:100B60001BBA03610120D0E7092ACDD1002BCBD0DD
:100B7000802342685B049A42C6D10222714B012055
:100B80001A70C2E76F4B01201A70BEE7032BBBD16E
:100B900043681BBA4360581E43425841C0B2B4E791
:100BA0000120B2E7012BAFD9802342685B029A4251
:100BB000AAD18368002BA7D10722624B01201A70AB
:100BC000A3E758425841C0B29FE7012B9CD90B22A2
:100BD0005C4B01201A7098E7012B00D894E78368DA
:100BE000594A190A1370594A01201170584A190CB0
:100BF0001170584A1B0E13700122574B1A70514B3B
:100C000007321A7081E7012B00D87DE78023416805
:100C10005B02994200D077E70C3A5049504803F004
:100C2000ADFD0822474B01201A706EE7012B00D85A
:100C30006AE783684B4A1BBA13600A22414B0120C2
:100C40001A7062E701780D2900D95DE7464C8900EA
:100C500061588F46012B00D856E70122836843492B
:100C60001BBA1B04DB0C9A4013000A6801201343D3
:100C700000220B603E4B1A60324B08321A7044E778
:100C8000012B00D840E780244168A404A14247D04A
:100C90008023DB04994200D036E78368002B47D0DD
:100CA00080225205934200D02EE701200822314BCA
:100CB0001870244B1A7028E7012B00D824E78368AA
:100CC000284A1BBA136009221E4B01201A701CE728
:100CD000012B00D818E7802243689204934216D073
:100CE0008022D204934200D00EE78368002B00D00C
:100CF0000AE70522134B01201A7006E75A425341B6
:100D0000D8B202E703220F4B01201A70FDE6836878
:100D1000002B00D0F8E604220A4B01201A70F4E6FA
:100D200080680E4900BA9A1EFFF7C2FE0120ECE669
:100D30000A490C3A104803F021FDB6E7F46002209E
:100D4000C8520010BFAB0220C5AB0220C9AB0220C5
:100D5000C6AB0220C7AB0220CAAB02200061022052
:100D6000580F0020080500200453001024750220AD
:100D700004050020BEAB0220F00F00204823F0B590
:100D8000C646D0269846012700B50A4C3606A04430
:100D900025680834280001F0D7FC3B00AB40002256
:100DA00001212800B36201F059FC4445F0D180BC18
:100DB000B846F0BD6C530010F0B5314D85B001213F
:100DC000280003F003FF2F490400280003F01CFF54
:100DD00003001C33C2011B0313432B4AC0271340DB
:100DE00001932A4B06000393C0239B020093284BD8
:100DF0007F013A002100280002933B0003F068FFC6
:100E00003B0000222100280003F0A4FF06210B2054
:100E100001F00CFC06210C2001F008FC21006B46BF
:100E20003200280004F01CF80123A3402A680120A6
:100E300013432B6004F05CF8A021164BC20218602B
:100E4000154BC9051A40E3031A4319238C461A436C
:100E500083011248634484460021A400644419605D
:100E60000B205C6099601A610131002201F0F6FBF1
:100E7000002201210C2001F0F1FB05B0F0BDC046BD
:100E800000002050E0530010FFFFFF9F6B3110283F
:100E900000000640EC790220FF7F00FF1000205088
:100EA000F0B5D6464F464646C0B54F4990B04F487C
:100EB00003F0AAFE4E49040005904C4803F0A4FE3E
:100EC0004C4905000690494803F09EFEC71C079058
:100ED0003F03C0010743E81C0003ED01284382469D
:100EE000601C0003E4012043B8468146002400272B
:100EF0003E4D05AE02230B2221003C48009703F033
:100F00006DFF002C3CD08022F82352025B02089235
:100F10000993C0231B0310220B970A9308A90CA85E
:100F2000012C5DD003F02AFC43460CA9102208A82E
:100F30000D9303F023FCB023DB020B93C0239B0231
:100F400008932D4B326802210A93284808AB03F01E
:100F500087FF03F0ADFD002003F0A0FD02222B6807
:100F600013432B602B68023213432B602B68033A28
:100F700013432B6010B0E0BCBA46B146A846F0BDA2
:100F80008022F82352025B0208920993C0231022A8
:100F90001B0308A90CA80A930B9403F0EFFB4B4624
:100FA00010220CA908A80D9303F0E8FB0B9B134A31
:100FB00021001A40B023DB0213430B930A9B104A13
:100FC0000393C0239B020893039B08481A400D4BD0
:100FD000013413430A9304CE08AB03F041FF89E7C1
:100FE00003F0CCFB5346DBE7B45300100000305055
:100FF000C0530010D053001000008980FF7FF0FF25
:10100000FFFF0A3E0000818070B580250B4CAD02C9
:101010002A000021200003F0ABFB094B2A001968CD
:1010200080235B059C4649046144200003F0A6FB35
:10103000200000F0D7FF034B186070BDC460002093
:101040000005002024750220F0B5DE464E464546D8
:1010500057460024E0B58FB003F0AEFC03F09AFDD4
:10106000C94B1A201C61FFF7EFF91B20FFF7ECF9C1
:10107000C64D1C20FFF7E8F91D20FFF7E5F9280011
:10108000C34903F0ADFFC7232A6801215340CF2293
:101090001A4080235B012B431A60022001F0C6FA3C
:1010A0000121032001F0C2FA01F0C4F8142001F07C
:1010B0004BFBD02580232D065B0300220121AB6270
:1010C000142001F0CBFA122001F03EFB8023012610
:1010D000DB02002201211220AB6201F0BFFAAD4B0E
:1010E00004210F2099461E7001F0A0FA8C22942151
:1010F000A94BAA489C505C5004315C5004315850B4
:1011000080200C39400058509E50A54BA54A1B68C2
:101110001B0C1B04136001F0B1FEFA2208AB029312
:10112000A14B520000930194002301F0ABFE152067
:1011300001F00AFB80239B03002201211520AB62F2
:1011400001F08CFA012204211520984B01F09EFA3F
:1011500002F08AF8002900D161E2FA22002392000D
:1011600003F04AF8D024924B240618606368DB022F
:1011700000D46BE28F4C00212000282203F0F8FA03
:1011800022008D4B13CB13C213CB13C213CB13C24C
:101190001B681360FFF738FF884803F0D5FCFFF7A2
:1011A00063F9FFF775FA1323854A1360854B536083
:1011B000854B9360FFF792F9FFF7CEF9FFF706FA38
:1011C000FFF732FAFFF746FAFFF776FAFFF7D6FD98
:1011D000FFF7F2FDFFF764FE002306937B4B9B466F
:1011E00003F066FC069A7A4904001300891A8242C9
:1011F00008D21A057748120D825812BACA50043321
:101200009C42F6D8069BE01A03230340012B01D130
:10121000FFF770FC032303349C436F4B06941B7849
:10122000002BDDD080206D4A6D4912684004049285
:1012300092015118096801421BD10B2B19D8694939
:101240009B00CB589F463F21614B67489B78807934
:101250008B435BB20840644C1843A0716079014035
:101260000B436371A023DB059C4605236244146095
:10127000D3610023584A1370B2E70020FFF79AFBAE
:10128000F7E73F21524B4E489B7880798B434C4C7B
:101290005BB208401843A071607901400B43637151
:1012A000A023DB059C46032362441460D361E0E77E
:1012B0000120FFF77FFBDCE73F21454B4B489B7844
:1012C00080798B435BB20840484C1843A071607929
:1012D00001400B436371A023DB059C461F2362443E
:1012E0001460D361C5E73F21394B41489B78807931
:1012F0008B435BB208403E4C1843AEE73D4B1A7837
:101300002323002A03D000233A4A137020333A4A99
:101310009371FFF7FDF9394B1C68002C00D165E192
:10132000D02301251B061B6D1D4200D071E1344BFB
:101330001B680493072B00D908E3314B1B68304A24
:10134000013313602F4B1B78002B92D02E4B04934C
:1013500000230793079C0621200002F0E3FE4700CC
:10136000FFB27B1C2000DBB20621984602F0DAFEB9
:10137000CD000735EDB26C00083511346D00002644
:10138000BA46E4B2EDB28DE000C0044000C00340B4
:10139000406BED070C05002000000540FFFF00003A
:1013A00098000540981005400D030010F10300104F
:1013B000807B0220CC78022000001210C1000020A7
:1013C0004C0F00200700010007070606000500205B
:1013D000F460022024650220BFAB0220EC790220D9
:1013E000100000503C530010FC6402207079022071
:1013F000B0100020C1AB02205C0F00202475022039
:1014000004050020BEAB0220F00F00202300113B9A
:10141000D8B25B461B68844A013B5B00D25A4B46FC
:101420001B78059092B2002B00D1C7E0514600F026
:10143000ADFE5B461B687C4A013B5B00D25A4B46C3
:1014400027001B78103FFFB292B2002B00D1ADE015
:101450005146380000F09AFE5B461B68724A013B19
:101460005B00D25A4B461B7892B2002B00D195E01C
:101470004146059800F08AFE5B461B686A4A013BBC
:101480005B00D25A4B461B7892B2002B7ED041466D
:10149000380000F07BFE023C023D0136E4B2EDB2C2
:1014A000082E37D0049B01221B7833411A42ADD15C
:1014B0002300113BD8B24B461B78002251460590C1
:1014C000002B00D18EE000F061FE4B4627001B7818
:1014D000103F00225146FFB2002B7FD0380000F0B1
:1014E00055FE4B461B7800224146002B72D00598D2
:1014F00000F04CFE4B461B7800224146002B65D085
:101500003800023C023D013600F040FEE4B2EDB28C
:10151000082EC7D1079B049A013301320793049226
:10152000C02B00D016E700F03FFE00233F4A1370A7
:101530009FE63F213E4B3F489B7880798B435BB2CF
:1015400008403C4C1843C1E63F21394B3A489B7850
:1015500080798B43384C5BB208401843A0716079A6
:1015600001400B436371A023DB059C460A236244C0
:101570001460D3617DE63F212D4B30489B78807904
:101580008B435BB208402D4C18439FE6531E9A4193
:1015900041462000D2B200F0EDFF7CE7531E9A4195
:1015A00041462800D2B200F0E5FF65E7531E9A419C
:1015B00051462000D2B200F0DDFF4DE7531E9A41A4
:1015C00051462800D2B200F0D5FF32E7200000F0EB
:1015D000D1FF60E7280000F0CDFF8BE7200000F08E
:1015E000C9FF7EE7280000F0C5FF6EE7144B1B68BB
:1015F0000493072B00D8A0E6124B1B78002B00D1D8
:10160000A0E6FFF701FD0F4B0F4A1C70012313707A
:1016100098E60B4B1B68072B00D993E68FE6FA215F
:10162000890002F0A7FD9DE510050020BEAB022059
:10163000F4600220740F0020C4600220F4780220BD
:1016400004050020C0AB0220C1AB02200021012212
:10165000080000F08FFF0021CD4A080000F096FD41
:1016600000F05AFF012263681B0D1A42FBD000F004
:1016700065FF01221F213F2000F07CFF0021C44AAA
:10168000080000F083FD00F047FFD0210122090689
:101690004B681B0D1A42FBD1E021BE4BC9011A68F1
:1016A0000A40BD490A600421BC4A1160FC311A6835
:1016B0000A42FCD05A68BA4C92B2120922601A68E7
:1016C00080235B015340E022D2011340B24A8021C3
:1016D00013600422B14B49001A60AE4B1A680A42EB
:1016E000FCD05A68802192B21209E2601A68802305
:1016F0009B015340E022D2011340A74A49001360E6
:101700000422A64B1A60A34B1A680A42FCD05A68FE
:10171000802192B21209A2611A68C0239B01534032
:10172000E022D20113409C4A4900136004229B4BE3
:101730001A60984A13680B42FCD053689BB21B098D
:10174000236200F0FBFE01221F217F2000F012FF28
:1017500000F0E2FEFA20400001F002FDD02101225B
:1017600009064B681B0D1A42FBD1E021894BC901C8
:101770001A680A4088490A600421884A1160FC31CD
:101780001A680A42FCD05B689BB21B09636000F0D8
:10179000D5FE3F210122080000F0ECFE00F0BCFE67
:1017A000FA20400001F0DCFCD021012209064B6840
:1017B0001B0D1A42FBD18022764B520119684A4018
:1017C000E021C9010A4074490A600421734A11608A
:1017D000FC311A680A42FCD05B689BB21B0923618A
:1017E00000F0ACFE012200213F2000F0C3FE00F01B
:1017F00093FEFA20400001F0B3FCD021012209063B
:101800004B681B0D1A42FBD18022624B52011968B2
:101810004A40E021C9010A405F490A6004215F4A49
:101820001160FC311A680A42FCD05B689BB21B094C
:10183000636100F083FE01221F21002000F09AFE68
:1018400000F06AFEFA20400001F08AFCD02101225B
:1018500009064B681B0D1A42FBD1E0214D4BC90113
:101860001A680A404C490A6004214C4A1160FC3154
:101870001A680A42FCD05B689BB21B09A36000F0A7
:101880005DFE01223F217F2000F074FE00F044FE47
:10189000FA20400001F064FCD021012209064B68C7
:1018A0001B0D1A42FBD180223A4B920119684A4023
:1018B000E021C9010A4038490A600421374A116011
:1018C000FC311A680A42FCD05B689BB21B09E361D9
:1018D00000F034FE01223F21002000F04BFE00F01A
:1018E0001BFEFA20400001F03BFCD021012209063A
:1018F0004B681B0D1A42FBD1C022264B920119687E
:101900004A40E021C9010A4023490A600421234AD0
:101910001160FC311A680A42FCD05B689BB21B095B
:10192000636200F00BFEEFF3108572B68021902009
:101930004901400303F030FC802290202100520036
:10194000400303F011FC85F3108814E4200002F03A
:10195000ABFB1F23181A8540124BAC431C600403D9
:10196000EFF3108572B65B4680211B68490158046D
:10197000001903F011FC0C4B802219195B461B68FF
:1019800052015804001903F0EFFB85F31088D9E4E5
:10199000FFFF000000C0044000D0044000E004400D
:1019A000CC78022024750220C4600020F0B5DE4609
:1019B00057464E4645469A4BE0B51F68994BBD00C9
:1019C000ED19AD009A46A846D0448BB01422FF21F1
:1019D000404602F0CDFE280043461430DF6014225A
:1019E000BB1CFF215044994602F0C2FE53467E1CA8
:1019F000B400A419A4001B1928009E604346283097
:101A00009E601422FB1CFF215044984602F0B0FE59
:101A10004B4628004A469E0053464E44B6003C3092
:101A20009A51FF211A5150443B1D1422994602F04D
:101A30009FFE434628009C00534642464444A4006F
:101A40001B19564450309A60FF217B1DB2605044F0
:101A50001422984602F08CFE4B4628004A469E000F
:101A600053464E44B60064309A51FF211A515044F7
:101A7000BB1D1422994602F07BFE434628009C00C1
:101A8000534642464444A4001B19564478309A6099
:101A9000FF21FB1DB26050441422984602F068FEFC
:101AA0004B464A469E00534628004E44B6009A5183
:101AB0001A5108238C301422FF215044994602F019
:101AC00057FE43469C00534642464444A400280027
:101AD0001B199A6009235644A030B944B260FF2113
:101AE00014225044984602F043FE4B464A469E005C
:101AF000534628004E44B6009A511A510A23B43076
:101B0000B8441422FF2150449B4602F031FE434664
:101B10009C004444A40054445644A360B3600B2387
:101B20009C462800BC446346C830BB441422FF21B5
:101B30005044029302F01CFE5A469600B3189B00D4
:101B40005344DA6000221A61029B5A4699460023E8
:101B500001932B00E2602C00B8464D4637009946B1
:101B60005E46DC3454446A1CFF2104922000142297
:101B700002F0FEFDBB199B00534465605D602300CD
:101B8000103B1D60019B2000013359008B4614223D
:101B9000FF211430019302F0EBFD584680210143F0
:101BA00020006A1C22626162E260FF211422283058
:101BB00002F0DEFD5A46019BAE1CEF1CA662A2633A
:101BC0002660012B01D16B1C039320001422FF21FE
:101BD0003C3002F0CDFD012320009C466764E344C5
:101BE000E76127631422FF21503002F0C1FD8022FB
:101BF0005B46200013432E1D2366E665A664FF2185
:101C000064306C3A02F0B4FD5B466367019B6F1D64
:101C10006766E76306357834042B05D0B700A2E782
:101C2000EC600220AC7502204246213293009B18E2
:101C300002999B0001325344596093009B189B000A
:101C4000534459602423474646469846AF234D46A1
:101C50009B00E8181422FF21504402F089FD039AEA
:101C6000534694462336B400A419A4001B195E60A1
:101C7000930063449B0053445E6025239946B4233C
:101C80009B00E818B8441422FF21504402F070FD74
:101C9000434642469E0053464644B6009A511A5166
:101CA00026239846B9239B00E818B9441422FF2143
:101CB000504402F05DFD4B469C0053464A464C445E
:101CC000A4001B195A6001221A614B4656447360E6
:101CD00027239946BE239B00E818B844FF211332FE
:101CE000504402F045FD434642469E00534646445A
:101CF000B6009A511A51B74BB94428371F60C32315
:101D00009B00E8181422FF21504402F031FD4B469D
:101D10004A469B004B449B00534456445A607260B1
:101D20000022DA60AC4B1D680023059303339B4609
:101D3000059A002694469300110263440791069386
:101D4000002208AB9A80069AB31194465246634427
:101D50009B00D25800239846002A02DA01339846A5
:101D60000022059B9A4200D1F8E09300991889005F
:101D700051440F698021394200D0F7E000218C46A0
:101D800080218F43012F00D101E1092F00D108E10B
:101D900079424F410021FFB20291019103915C46CB
:101DA000B100891121409B185B1851469B00C9580E
:101DB000002902DA0123002198468B008A4221D0B3
:101DC00080245A18920052441269049214420DD091
:101DD0001400802084437738001B012484402000B5
:101DE000644604432000039A09ACA0548020049A5E
:101DF0008243012A00D1E4E0092A00D1DDE0002A73
:101E000000D1012758463201921102405B189B18FD
:101E100052469B00D258002A02DA0123002298463B
:101E20009300914220D0802099188900514409697B
:101E3000894608420CD008008024A043773C201A31
:101E4000083C8440039909A8405C204309AC6054D5
:101E5000802049468143012900D1B8E0092900D1F9
:101E6000A7E0002900D101275846B101891101409E
:101E70009B185B1851469B00CB58002B68DB3F2119
:101E8000194089469A421FD09A00D31880229B009D
:101E900053441B691A420DD080211A008A437739B6
:101EA0008A1A083991400A00039809A9095C0A4373
:101EB00009A90A5480229343012B00D184E0092B05
:101EC0006CD0002B00D1012708AB1C795879002D6C
:101ED00032DD0022414B03E001320233AA422BD013
:101EE0001978A142F8D159788142F5D101993F0280
:101EF0008801494608434146C90108430299079BA6
:101F000038434F029B193649384392025B00024323
:101F1000CA52802301365B009E4200D010E7059B29
:101F200001330593282B00D002E70BB0F0BCBB4671
:101F3000B246A946A046F0BD2849274A8C466B1CEC
:101F400013606A008C54624450702A001D00CDE773
:101F50000023994601339846002393E70023002786
:101F60009C46029301930393930018E73900802065
:101F700081437738411A08388840C1B28C466046A0
:101F800008A9087180218F43012F00D0FDE60121AF
:101F90000291002100270191039100E701230193A1
:101FA00092E700218C4602910131002701910391B3
:101FB000F5E601210191039156E701220192039276
:101FC00020E7012202921DE7012302937CE7012111
:101FD000029149E7EC600220A875022028750220D2
:101FE000C410002070B59EB004005822504908A8C3
:101FF00002F0C4FBFF235B02E5181022280008A9A9
:1020000003F0AAF80023002802D118001EB070BD0A
:10201000F123F0225B02E0180021520102F0A8FB3C
:102020002800582208A902F0A9FB002120226846B6
:1020300002F09EFB3F4B404A009301AB23CA23C3EF
:102040003E4B6A4604930923137502231383FD2331
:1020500001255B026946D575E018202202F08EFB4F
:10206000C623B0225B0236499200E01802F086FBDC
:10207000FE232A005B02E1184B085B421A401D4216
:1020800053D0FE2304205B024042E0521300FE20A6
:102090008026000284467600B61A62445200700818
:1020A000A2188000274D801820C28242FCD1012254
:1020B000300090431B18864203D004225B0052423A
:1020C0005A520623F121204A5B42A3521F4AA352CF
:1020D0001F4AA3521F4AA1521F4A0131A1521F4A4F
:1020E0000131A1521E4A0131A1521E4A0131A152B1
:1020F0001D4A0131A1521D4A0131A1521C4A013130
:10210000A1521C4A0131A1521B4A0131A1521B4A62
:102110000131A1521A4A0131A1521A4A3539A1524C
:10212000194AA352C1231B066FE70023AFE7C0463D
:10213000345400103300C600245400102021030240
:102140008C540010FCFFFCFFFEFD0100FCFD0100B3
:10215000E2FD0100E4FD0100E6FD0100E8FD0100F3
:10216000EAFD0100ECFD0100EEFD0100F0FD0100C3
:10217000F2FD0100F4FD0100F6FD0100F8FD010093
:10218000FAFD01008CFD01008EFD01004B005B1883
:102190005B011818034B4000110A195401301A54FE
:1021A0007047C046887B0220F0B5C64600B582B0B5
:1021B0006B46D0268027DC1D15231C4D3606FF01FB
:1021C0002100B76101222370280002F0EDFF0023F7
:1021D0002100237001222800984602F0E5FF5F23CA
:1021E000210023700122280002F0DEFF7523210068
:1021F00023700122280002F0D7FF434621002370FC
:102200000122280002F0D0FF3F2321002370012289
:10221000280002F0C9FFC022280005497761920119
:1022200002F0C2FF02B080BCB846F0BD00C003405F
:10223000887B0220F0B5DE4657464E464546E0B55F
:10224000D0268027802483B03606FF010E20A4010B
:1022500000F07AFA77620D20776100F075FA746207
:102260003220B46100F07CFF6B467461DC1DAE234C
:10227000A74D2100B76101222370280002F094FFCE
:10228000A023210023700122280002F08DFF722379
:10229000210023700122280002F086FFA1232100E3
:1022A00023700122280002F07FFF00232100237009
:1022B00001222800984602F077FFA2232100237014
:1022C0000122280002F070FF434621002370012202
:1022D000280002F069FFA4232100237001222800B6
:1022E0009B4602F061FFA8232100237001222800F1
:1022F00002F05AFF3F2321002370012228009A4652
:1023000002F052FFAD23210023700122280002F0C9
:102310004BFF8E23210023700122280002F044FF8E
:10232000B023210023700122280002F03DFF0B237F
:10233000210023700122280002F036FFB123210082
:1023400023700122280002F02FFF31232100237087
:102350000122280002F028FFB3232100237001226C
:10236000280002F021FFF023210023700122280021
:1023700002F01AFF8A23210023700122280002F0B4
:1023800013FF64232100237001222800994602F0E4
:102390000BFF8B23210023700122280002F004FF91
:1023A0007823210023700122280002F0FDFE8C23F7
:1023B000210023700122280002F0F6FE4B46210086
:1023C00023700122280002F0EFFEBB2321002370BE
:1023D0000122280002F0E8FE3A23210023700122A6
:1023E000280002F0E1FEBE23210023700122280014
:1023F00002F0DAFE3E23210023700122280002F0C1
:10240000D3FE8723210023700122280002F0CCFE96
:102410000623210023700122280002F0C5FE81233B
:10242000210023700122280002F0BEFEFF232100BC
:10243000237001222800994602F0B6FE8223210073
:1024400023700122280002F0AFFE4B4621002370CA
:102450000122280002F0A8FE83232100237001221C
:10246000280002F0A1FE4B46210023700122280023
:1024700002F09AFEA623210023700122280002F018
:1024800093FE5B46210023700122280002F08CFE9F
:10249000AF23210023700122280002F085FE1523BE
:1024A0002100B76101222370280002F07DFE43461F
:1024B000210023700122280002F076FE5F23210014
:1024C00023700122280002F06FFE75232100237083
:1024D0000122280002F068FE4346210023700122F9
:1024E000280002F061FE53462100237001222800DB
:1024F00002F05AFEC022280006497761920102F0DC
:1025000053FE03B0F0BCBB46B246A946A046F0BDA0
:1025100000C003404C570010002300B583B0009367
:102520003C21034B034A044802F0F2FC03B000BD17
:102530000104000024050020D4090020802200B5F9
:10254000084B83B000211868D20002F011F9002373
:102550003C210093044A054B054802F0D9FC03B026
:1025600000BDC04620050020240500200104000015
:10257000D409002070B507263300CC1723405B1820
:10258000DB10DB011818094B640F1B6809191D18B3
:10259000185C01233140091B8B40002A03D01843EB
:1025A000C0B2287070BD9843FBE7C04620050020EC
:1025B000D0231B06F0B51E68C646731E9E417342AB
:1025C00030261E40164B00249C46164B07270F252D
:1025D000984600B56644E00803003A0008339B00C3
:1025E0009B5922409200D340290019401D4210D02F
:1025F0000B0093401A003C300B4B8000C250D0239C
:1026000042461B061B689B009B58002B01D02000F4
:10261000984701341E2CDED180BCB846F0BDC046C0
:1026200000410140F079022000400140094A830046
:1026300094464022634410B51C68C0006240C02428
:1026400014408022520113431C60034B9C4660449B
:10265000416010BD04C00140004001400A4B8000B1
:102660009C4604236044002901D00C230821002A41
:1026700000D10B00026853400C221A4080235B01FA
:10268000184302607047C04604C0014070B50600A0
:10269000D02000060468F508601E844130206442A2
:1026A00004401448844607203040800081402800C0
:1026B000114E3C3064448000AD0081516419002A01
:1026C00012D08022920114432160D0221206126897
:1026D0000A49920053500D20094901F0D3FA012113
:1026E0000D2001F0A9FA70BDC022920114432160AF
:1026F000EBE7C0460041014000400140F079022074
:10270000B12500100200C30807201040800081405E
:10271000024A3C339B0099507047C046004001403C
:10272000084B80009C466044002905D080239B0113
:102730001843402303607047C0239B011843402384
:102740000360F8E704C001400123D0228340120651
:1027500093629361094A8300944640226344196856
:10276000C0004A40C0211140802252011343196029
:10277000034B9C46052360444360704704C00140FE
:1027800000400140EFF3108072B6034A1368002B3B
:10279000FCD0BFF35F8F70472C0100D0BFF35F8F79
:1027A0000022024B1A6080F3108870472C0100D081
:1027B00070B5EFF3108C72B60D4D2B68002BFCD06A
:1027C000BFF35F8F0724CB08C618C05C01230C4001
:1027D000A3401C000440034207D103433370BFF3FE
:1027E0005F8F2C608CF3108870BD100001F0A2F890
:1027F0002C0100D0F8B54746CE46884680B5EFF3A9
:10280000108C72B6214D2C68002CFCD0BFF35F8F6A
:102810009A422CD8D4080727055D061901241740D1
:10282000BC402C421FD007210127894609E0D4086B
:10283000055D06194C4639001440A1400C002942A0
:1028400011D001329342F2D201204042BFF35F8F98
:1028500000220E4B1A608CF3108800280FDBC0BCDE
:10286000B946B046F8BD2C4310003470EEE7BFF314
:102870005F8F00232B608CF3108801204042434679
:10288000002BECD0089801F055F8C0462C0100D080
:10289000024B18688007C00F7047C04600C0064052
:1028A0000021044B044ABFF35F8F02C39342FAD165
:1028B0007047C046000100D0800100D0044A107863
:1028C000431CDBB2172B00D9102313707047C0468E
:1028D00025090020F8B5040006200D0001F0A6F936
:1028E000002844D02A4B2B49E21853425A418023F6
:1028F000DB039C469205284B62441A60274B1A6002
:1029000010008B689843FBD1214B8021E3185A4279
:102910005341234A5B0049009952062001F086F991
:102920002900C00001F026FCC30921D14027012164
:10293000260080256162A36200232C36AD01354359
:102940002B60062001F072F93900800001F012FCC2
:102950006023E26A53406E221A4080235B013343B6
:102960001A60104B236310232B600D3BA364F8BD4A
:102970000D4A934203D900230C4F0D49D8E77F221B
:102980001040013040089F0119003F180300CFE7B5
:102990000080FCBF00C0004000E0004000F00040AC
:1029A000B0AB022001030000FEFF0000C0FF3F00AB
:1029B000FFFF000083680B4810B584466144624401
:1029C000090112019A18591854684B6801209C4259
:1029D00001D802D00020C0B210BD12680B689A4224
:1029E000F9D8F7E7FFFFFF0F10B508000B690C00DF
:1029F0009847002802D02068616810BDE06000217F
:102A00000020FAE70A4B1968EFF3108072B60A68E3
:102A1000002AFCD0BFF35F8F1B68BFF35F8F0022DB
:102A20001A6080F3108840BF002000217047C04624
:102A30009CAB0220F8B557464E464546DE46E0B50B
:102A400099460CAB1C780DAB1B78060090469A4655
:102A50000768002C11D1BC7B002C42D065003B687C
:102A60002D19033D59194B78BB73002B00D1FB7313
:102A700000238B704B700B7004E065003B682D19D0
:102A8000033D5919B2682A4B94464246E3181B018C
:102A900063441A604A465A600A9A9A600B9ADA604E
:102AA00000238B704B700B707B7B9B46002B2BD0D5
:102AB00022005946B8687B6898473A68002816D0C3
:102AC0005B4658465B005B445519033BA870D11820
:102AD000D35C002B00D06B705B460C707B73A345FE
:102AE00013D0F0BCBB46B246A946A046F8BD5B4633
:102AF0005B005B44033BD3189C705119525D002A64
:102B000000D05A705B460B707C7342464B46307D5A
:102B100000F00AFC051E06D05346002B03D121000D
:102B2000306800F047FE0E9B002BDAD01D70D8E70E
:102B3000FFFFFF0FF0B5DE464E46574645460023E1
:102B4000E0B58DB00A936B4B8200D3580B90994639
:102B500000239B464B46079300F086FB079C06002C
:102B60000F006268EFF3108572B61368002BFCD07B
:102B700022000794BFF35F8F2468637B9946002B84
:102B800067D092685C4B90464B441B019844434687
:102B90001A685B6810001900801BB94100295FDDCD
:102BA0000B9800F0C1FB00230026984600279A46A8
:102BB000079C6368BFF35F8F5A461A6085F31088DD
:102BC0005346002B08D10028C6D10DB0F0BCBB463F
:102BD000B246A946A046F0BD0A9B414618024B46A4
:102BE0001843D047089009916268EFF3108572B6D8
:102BF0001368002BFCD00794BFF35F8F0899099AE4
:102C0000002A48DB114303D0079B1B69002B5DD1D1
:102C1000079B1B68D97B002907D04A005218196806
:102C20008C4649466244033A51704A46DA734B4631
:102C3000079A013BD168CA5C0132CA545B46079AC5
:102C400013615368BFF35F8F5A461A6085F310888B
:102C500082E700230026984600279A460020A7E72F
:102C6000002901D100289BD10021200000F024FD83
:102C700043461E685F689B68079A9A464346DB682E
:102C80009846D3684B44013B1B780A931B020343CD
:102C9000136100208CE72369002BB9D033003C007E
:102CA0005B1A94411A002300A74219D89F421BD0F7
:102CB00059460491012103914946029141460191EF
:102CC000514607980091FFF7B5FEB7E700F0CCFA40
:102CD000089A099B06000F0092197B419942E5D999
:102CE00001225242D317E3E79642E1D90122524230
:102CF000D317DDE788AB0220FFFFFF0FF8B557467B
:102D00004E464546DE46E0B5404D81468A466A68F5
:102D1000EFF3108872B61368002BFCD0BFF35F8FFF
:102D20002E68B47B002C39D0670033683F19033F0D
:102D3000DB195A78B273002A00D1F273A968344AB9
:102D40008C464946A21812016244116051465160F6
:102D5000304991600021D160997059701970737B6E
:102D60009B46002B35D022001900B0687368984745
:102D70003268002820D05B4658465B005B44D71978
:102D8000033BB870D118D35C002B00D07B705B463E
:102D90000C7073735C451DD0002626E06B68BFF392
:102DA0005F8F1C6088F3108801204042F0BCBB4656
:102DB000B246A946A046F8BD5B465B005B44033BB8
:102DC000D3189C70D119D25D002A00D05A705B468E
:102DD0000B7074734A465346287D00F0A5FA061E10
:102DE000DAD02100286800F0E5FCEB681B19013BF4
:102DF00019786B68BFF35F8F00221A6088F3108820
:102E00000020002ED2D108022043CFE7280900205D
:102E1000FFFFFF0F052A001010B5124C6368002B4E
:102E200004D00A21104800F00DFB10BD23000F4A0A
:102E30001021206800F05EFB032000F009FA032057
:102E400000F0E2FA03200A4900F028FAFFF736FD05
:102E5000084B9C46032360442375074B8000606049
:102E6000DC60DEE7280900209CAB0220B5290010B9
:102E7000352B00104000003488AB0220004870471A
:102E800028090020F0B54E464546DE465746E0B5D7
:102E900085B01099804689461100194300D1EDE0B4
:102EA000D81706005640340006005E400100350089
:102EB000241A8D41494640460A6088600F9A0E9850
:102EC0004B604A61086100F0CFF902000B00A418C2
:102ED0005D412000290000900191AB4200D9DBE068
:102EE00000D1D5E0002300259B4643465A68EFF306
:102EF000108A72B61368002BFCD0BFF35F8F434675
:102F00001E68B47B002C00D18AE063001B19DA1E16
:102F100094463368039263445A78B273002A00D10E
:102F2000F27341468968614A8C4600980199A2185B
:102F300012016244106051605D4991604946D16060
:102F40005A469A705A701A70777B002F00D185E02C
:102F500022003900B068736898473268002800D1B1
:102F600071E003997B00DB195118033B8F70D01877
:102F7000D35C002B00D089E004707773BC4200D191
:102F80006DE043464246DB6852681B19013B1B78E3
:102F9000BFF35F8F594611608AF31088002D0CD162
:102FA00001251B021C434B462800DC6005B0F0BC29
:102FB000BB46B246A946A046F0BD484603699847BD
:102FC000051E01D10024EEE74B461E685F68330002
:102FD0003B4367D0002F0BDA0098019902000B00E9
:102FE000921BBB41994215D824D0009201937CE7F3
:102FF00000F03AF902000B00B6185F4130003900CA
:1030000000900191BB4205D800D06EE700998A423A
:1030100000D86AE701235B42DC170093019464E760
:103020005B68BFF35F8F1C608AF310880124002562
:103030006442B8E700999142D7D901235B42DC177B
:103040000093019451E77B00DB19033B0398D318ED
:103050009C701118125C002A15D10F7074734346CE
:10306000187D009A019B00F05FF9051E00D188E7EA
:1030700043462100186800F09DFB82E701240025EB
:103080000122002316E75A700F70E7E74B7073E7D1
:1030900000998A4200D825E701235B42DC170093A0
:1030A00001941FE7002500247DE7C046FFFFFF0FC6
:1030B000E9290010F0B504000D0006267642F71746
:1030C000C64636196F4100B58F4213D810D000F0B4
:1030D000CBF832003B00121A8B41002B14DC002B82
:1030E00037D02900200000F0C9F880BCB846F0BDF8
:1030F0008642ECD90026002700F0B6F832003B00EB
:10310000121A8B41002BEADD30003900FFF7F6FD83
:103110000028E6DB00239846BC460F4A0F4F7B6A27
:103120009C4504D8B96A8E42DBD99C45D9D1116837
:10313000EFF3108072B60B68002BFCD0BFF35F8FEB
:103140001368BFF35F8F4146196080F3108820BF7A
:10315000E5E7002AC5D0D7E79CAB02200040054038
:1031600070B5060000F080F8FA2204000D0000237C
:1031700030000021920001F091FA001969418D425E
:1031800005D802D0FFF796FF70BD8442FAD901201E
:103190004042C117F6E7C046F0B5D6464F46464610
:1031A000C0B5EFF305833F22134018001038EFF34A
:1031B000108C72B6204D2A68002AFCD0BFF35F8FB6
:1031C0000122110081401D4C884661631C49170093
:1031D0000E788A463100C1400F400A4209D1BFF340
:1031E0005F8F2F608CF31088E0BCBA46B146A846CA
:1031F000F0BD14498200646A51588C420FD3124BBF
:10320000D25843469E4353461E70BFF35F8F002340
:103210002B608CF31088002AE6D09047E4E70B4A35
:103220009B00904643441A681A60BFF35F8F0023E7
:103230002B608CF31088D7E7280100D000400540B0
:10324000CBAB0220A0AB0220007A0220D03F054089
:1032500010B50100024A0348FFF7AAFA10BDC046A4
:103260004C870010C3AB0220034B596A0A00986ACE
:10327000596A8A42FAD1704700400540064A536AAB
:103280009942FCD807D1044B02E05A6A914202D11C
:103290009A6A8242F9D370470040054070B5040035
:1032A0000D00EFF3108672B61A4A1368002BFCD09B
:1032B000BFF35F8F002D1BD0200000F0DBFC164910
:1032C00081420AD0200000F0DDFC0121200000F046
:1032D000B3FC0123A340114A1360114BA400E55035
:1032E000BFF35F8F00220B4B1A6086F3108870BD0E
:1032F0000B4BA200D5500122A2400A4920000B78B6
:1033000093430B70044900F0E7FC0021200000F01B
:1033100093FCE5E7280100D09931001038600540A2
:10332000007A0220CBAB0220F0B54F46D646464687
:10333000C0B507002F4C616A0D00A66A616AA942F8
:10334000FAD18B4208D805D00120E0BCBA46B1467C
:10335000A846F0BDB242F7D9EFF3108A72B62648FC
:1033600001680029FCD0BFF35F8F0125BD402349D0
:10337000204C8846097889462943C9B28C46414683
:1033800060460870391D1E48890065630A51B900FE
:103390000B50216A0020294219D0616A0800A66AF0
:1033A000616A8142FAD18B4219D801D1B24216D852
:1033B000CC451DD00F4B1F201D625D6301230740CC
:1033C000BB40104A1E38136043464A461A70BFF38A
:1033D0005F8F0022084B1A608AF31088B5E700203F
:1033E000BFF35F8F0022044B1A608AF31088ACE7AA
:1033F0000120ECE700400540280100D0CBAB0220C3
:10340000A0AB022080E200E0EFF3108C72B60A4914
:103410000B68002BFCD0BFF35F8F01238340074A6A
:103420000748136202789A430270BFF35F8F00234C
:103430000B608CF310887047280100D000400540D5
:10344000CBAB0220024B9C4661448900016070476F
:103450004000003410B50400FFF730FA01002000EE
:10346000FFF7F0FFFF23A380BFF35F8F10BDC046BF
:1034700010B50400FFF722FA01002000FFF7E2FF79
:1034800001235B42A380BFF35F8F10BD70B50500C1
:1034900014001600002915D00C00002A12D08068F4
:1034A0006B689847296800280ED073009B1962004A
:1034B000033B1219CB18033A9C7088188A5C002AC7
:1034C00015D10670200070BD63001B197200033B0C
:1034D0009219CB18033A9E7088188A5C002A02D190
:1034E00004703400EEE75A7004703400EAE75A7052
:1034F0000670E7E730B583600023CCB24373013335
:10350000047342608373C4730D000068012C06D9F4
:10351000421C0133DBB2137003329C42F9D1FF210C
:1035200029404B005918002340180338437030BD20
:10353000F8B5CE46474606000C0080B5002907D0F6
:103540004D0003686D18033D5A195778002F04D1B8
:103550002000C0BCB946B046F8BD7900C91903398E
:1035600088464344597889460021597051707368E0
:103570003A002100806898473368002814D04246FA
:103580009A18947059195B5D002B00D053700F701E
:10359000270049463000FFF7CBFF3900020030001A
:1035A000FFF774FF0400D3E7424641465D19AF7050
:1035B0009A185B5C002B00D06B701470E9E7C04672
:1035C000F0B557464546DE464E46E0B50D006B0069
:1035D00001685B19DF1E0400C85D83B00192CA193F
:1035E00000284CD043001B18033BCB185E78B44630
:1035F000002E16D1019E002E3ED0E67B002E04D078
:1036000073009B19CB18033B5D70E57300282FD125
:103610000023537003B0F0BCBB46B246A946A04697
:10362000F0BD72006244033A89184A78904600223D
:103630004A7091465A70010032002000FFF726FFC1
:1036400043468246002B07D05B0021684344033B7E
:10365000CB185A78002A16D1424651462000FFF76F
:1036600015FF2168019BCA19002BC6D10028CFD0B5
:1036700043001B18033BCB1800219970C8E7019B3E
:10368000002BBAD1C4E750008018033809184878D5
:10369000834648464870587041462000FFF7F6FEC2
:1036A000594680462000FFF743FF414602002000B4
:1036B000FFF7ECFE8046CFE7F0B557464546DE46BD
:1036C0004E46E0B583B00191457B04006B00006875
:1036D0005B19DF1EC15DC21900294ED04B005B187B
:1036E000033BC3185E78B446002E18D1019E002E0D
:1036F00040D0E67B002E04D073009B19C318033B17
:103700005D70E573002931D1002328005370617387
:1037100003B0F0BCBB46B246A946A046F0BD72005D
:103720006244033A801842789046002242709146E3
:103730005A7020003200FFF7A9FE43468246002B54
:1037400007D05B0021684344033BCB185A78002A1A
:1037500017D1424651462000FFF798FE019B010019
:103760002068C219002BC4D10029CDD04B005B18B2
:10377000033BC31800209870C6E7019B002BB8D10B
:10378000C2E7500080180338091848788346484635
:103790004870587041462000FFF778FE5946804631
:1037A0002000FFF7C5FE414602002000FFF76EFE35
:1037B0008046CEE770B5040000292CD0437B8B42B5
:1037C0002ED0056848004018033828188278002A4F
:1037D00021D053009B18033BEA5CEE188A4202D1C9
:1037E0001BE0002A08D053009B18033BEB185A78C3
:1037F0008A42F6D142785A700023012283704370C6
:103800002000FFF7DDFE617B02002000FFF73EFE97
:103810006073012000E0002070BD43783370EBE757
:1038200001221900FFF7CCFE60730120F4E7C046C7
:10383000F8B5304A304B31491A60314A314B1A6081
:1038400014008B689C43FBD12F4D304EB54208D2FB
:10385000013E761BB60808CD984723000134B342D9
:10386000F9D100F085F82A4A264B1A60234A93685A
:10387000DB43DB01DD09002BF9D14022254B264C2F
:10388000264F9A675A671A67DA66BC4215D2013F1B
:103890003F1B0026FF0806E0FFF7EAFD0834731C13
:1038A000BE420AD01E0063792000002BF4D1FFF73E
:1038B000D1FD0834731CBE42F4D1194E194CC022FC
:1038C000A168300000F05AFFA660FEF7E9FF00F0A3
:1038D00037FBFFF7A1FA144C144EB44208D2013E54
:1038E000361BB60808CC98472B0001359E42F9D10B
:1038F000F8BDC046BFCDFBFE00E0004000C0004068
:10390000FE7F3C0000F00040EC090020FC09002094
:10391000FFFFFF0100F00140DC090020EC0900205E
:103920000000002000ED00E0FC090020000A00205B
:1039300000BEFDE70FB400B5084883B001F000F801
:10394000049B002B07D005A91800019100F08CFB07
:10395000034800F0F5FF00BEFDE7C0467087001089
:103960008087001010B50148FFF7E4FF848700103E
:1039700030B50C2083B000F053FBFEF789FF002820
:103980000ED0944B944A1A605A609A60DA601A61B9
:103990005A619A61DA611A62904A5A6203B030BD84
:1039A0008F4CA06700F044FB01228E4B1A60636CC1
:1039B000012BFCD103228C4B1A60894A936B012B9B
:1039C000FCD102240121894A89480533009400F082
:1039D000D3FA0523874A01218748009400F0CCFAE6
:1039E000864B5A68FF2A02D8802252005A608022F1
:1039F000784C7D4B21691201804D1A60002905D059
:103A0000606900F0B7FB01300138FDD1E0217B4B4C
:103A100002201A681140802252012A43116019685D
:103A2000484003210140116004219A681142FCD0F2
:103A30008022802192012A430901116080225200D4
:103A40005A606F4B23616F4B5968FF2900D85A6049
:103A50000321644A6B4B116002399A681142FCD011
:103A6000E0201A681040802252011A431060186842
:103A70004840032101400220116062498A681042D7
:103A8000FCD0802292011343802212011A6080220E
:103A90005D4B52004A6063615C4B5968FF2900D856
:103AA0005A6080225A4BE1691201584D1A60002970
:103AB00005D0606900F05EFB01300138FDD1E022E5
:103AC00052490B681A4080235B012B431A60802304
:103AD00080229B012B4312011A6080223E4B520030
:103AE0004A60E3614B4B5968FF2900D85A60802235
:103AF000494B216A1201474D1A60002905D06069BF
:103B000000F038FB01300138FDD1E02241490B685B
:103B10001A4080235B012B431A60802380229B0183
:103B20002B4312011A60802380225B004B602A4BDA
:103B3000D2022362394B5968914200D25A608022E6
:103B4000374B616A1201354D1A60002905D0606952
:103B500000F010FB01300138FDD1E0222F490B6845
:103B60001A4080235B012B431A60802380229B0133
:103B70002B4312011A608023DB024B60174B6362F8
:103B8000284B5A68FF2A02D8802252005A608022AD
:103B9000254BA1691201234D1A60002905D06069E7
:103BA00000F0E8FA01300138FDD1E0221D490B6830
:103BB0001A4080235B012B431A60802380229B01E3
:103BC0002B4312011A6080235B004B600E4BA361F4
:103BD000E4E6C046107B0220006CDC021BB700004C
:103BE000008000403CB0004030B00040002F6859D9
:103BF0000080024000389C1C00C002403080004021
:103C0000001BB7003C8000404059730754800040BF
:103C100054B000406080004060B000406C800040C4
:103C20006CB000404880004048B00040014B80002C
:103C3000C0587047107B022001238340002904D024
:103C4000034A1360034A13607047034A1360FBE79B
:103C500080E200E000E100E080E100E0012282403B
:103C6000034B1B6813405A1E9341D8B27047C0469D
:103C700000E100E0024B10309B688000C0587047A4
:103C800000ED00E070B50D00EFF3108672B60F4A3C
:103C90001368002BFCD0BFF35F8F0D4B10309B6877
:103CA00084001B590B4A934203D09D4201D0FFF779
:103CB00059FE074B9B681D51BFF35F8FBFF35F8FAA
:103CC0000022024B1A6086F3108870BD240100D0D8
:103CD00000ED00E0CD010010F0B5DE4657464E463F
:103CE0004546E0B50C0083B0EFF3108A72B65A4A2D
:103CF0001368002BFCD0BFF35F8F102291468144E4
:103D00004A46564B96009B689D59554B98469D4296
:103D100005D0A54216D0534FEB1B2F2B14D94F4B78
:103D20009B689D51BFF35F8FBFF35F8F00224A4BAB
:103D30001A608AF3108803B0F0BCBB46B246A946AD
:103D4000A046F0BD1D00EAE7012383409B465A468A
:103D5000454B1B681A4000925A46444B1A60BFF309
:103D60005F8FFCF780FA0190002803D0814501D0D5
:103D7000FFF7F8FD01232A009A431300DB1B5B4188
:103D800041495943090D93689C4208D15AE04300C8
:103D90001B189B00FB189868A04211D01A0006203F
:103DA00010560028F3DA009B002B05D05A46304B02
:103DB0001A602D4B1A60B2E75A462C4B1A60AEE7D8
:103DC00006201856002821DB4200111889007C18B3
:103DD0008846A1689960E179D97106216156997187
:103DE00000291FDBA488F91A640524154444091925
:103DF000E0240905490D24022143998012181D4B26
:103E00009200BF181A781870BA71CCE70198002890
:103E10000BD1FF30907118489080164A10781170BD
:103E20009871C0E7BD210902E7E7144A1449D21A84
:103E3000083A5002400D01439980124952080A4342
:103E4000DA80B0E70620105613000028BCDA019A89
:103E5000002AEAD14546E0E7240100D000ED00E069
:103E6000CD0100105009002000E100E080E100E0F9
:103E700080E200E0C8AB022000BDFFFF8A090020FD
:103E800000F0FFFF00F8FFFFAAAA0000F8B5012527
:103E900004000543FCF7E7F9EFF3108C72B6214AF2
:103EA0001368002BFCD0BFF35F8F1F4E2200B76852
:103EB0001E49521A5241214B53431B0D8200B858E0
:103EC0005BB2A8421CD006228A569A421CD012220B
:103ED0008A569A4222D01E228A569A4220D02A22FC
:103EE0008A5603209A4210D0114A11781370A1719A
:103EF000BFF35F8F00220B4B1A608CF31088F8BD64
:103F0000B1680C488850EFE7002042001218920078
:103F10008918FF228A71084A8A80E5E70120F4E7C0
:103F20000220F2E7240100D000ED00E0500900205B
:103F3000C8AB0220CD01001000BDFFFFAAAA0000FF
:103F4000F0B500220324FF27802620003D00094B06
:103F500011009C461040C0008540A14361440B689D
:103F60000132AB43350085402B430B60202AECD156
:103F7000F0BDC04600E400E0F0B5C646040000B560
:103F80000C2090461F000E0000F0F4F84101091AC1
:103F90008D01691AC90009188901404600F0EAF844
:103FA000069B3F041A0323681743002B22DB184BA0
:103FB000184DE21853425A4180235B019C4612037C
:103FC000154B62441A60154B1A601100AB68994397
:103FD000FBD1C022231D92011A4321232660A06039
:103FE00013602368002BFCDA0823E760136080BCB1
:103FF000B846F0BD3F2322681340B342D7D1A3682F
:104000001B051B0D8342D2D1E368002FCFD1EEE711
:104010000040FDBF00C0004000E0004000F0004054
:104020008023024A9B000343D3627047008005400F
:10403000AA23064A1B0113602F230549D360054BB1
:1040400019605368002BFCDA7047C04600400240FC
:1040500000B0FA000060024010B5002800D110BD89
:1040600000F060FCFBE7C04610B5094A0300146885
:1040700084B0002C08D0012200910648524203A9C6
:10408000A047012004B010BD00F05AFC0020F9E761
:10409000847B02205940001001480421014B18473D
:1040A000A0090020E1400010014B5B6818470000A8
:1040B000A0090020014B9B6818470000A0090020C0
:1040C000142310B50100188804331B88984710BDCD
:1040D000162310B50100188802331B88984710BDBD
:1040E000F8B54746CE4680B50F1E19D01423994621
:1040F000043304000025012698464B4618884346A1
:1041000021681B88984701C4431E984101354042ED
:104110000640AF42F1D13000C0BCB946B046F8BD50
:104120000126F8E7124A936F9B0815D29066D16674
:10413000002905D0FFE7FFE7FFE7516F106F7047D9
:1041400004B580210906C2175140002800D0C84399
:1041500001F012F8002104BDF0B5146E556E576FD2
:10416000166FFFF7E3FF1466556657671667F0BDD5
:10417000000000D0114A936F9B0813D2106651665D
:10418000002905D0FFE7FFE7FFE7516F106F704789
:1041900004B5002801D00020C04300F0EDFF00214D
:1041A00004BDC046F0B5146E556E576F166FFFF71D
:1041B000E5FF1466556657671667F0BD000000D02E
:1041C00094464E4A926F9208624601D230E0C04651
:1041D000F0B54A4EB56F6D08FCD3346E756E776FCF
:1041E000366F00F025F89446444A146655665767C2
:1041F00016676246F0BDC0469446404A926F9208E8
:10420000624601D258E0C046F0B53C4EB56F6D082D
:10421000FCD3346E756E776F366F00F04DF89446B0
:10422000364A14665566576716676246F0BDC04643
:10423000002B24DB11D000293EDA00B5C9434042EF
:1042400000D1013100F038F8C943404200D10131BA
:10425000DB43524200D1013300BD002AEBD10028DC
:1042600001D1002905D00020C90FC90701D1C043E1
:10427000410800B500F068FF0022002300BD00B532
:1042800000290ADBDB43524200D1013300F014F86D
:10429000C943404200D1013100BDC943404200D171
:1042A0000131DB43524200D1013300F005F8DB431A
:1042B000524200D1013300BD002923D1002B18D177
:1042C000002A0CD0BC460D4F38667A6600210023C8
:1042D000FFE7FFE7FFE77A6F386F67467047002810
:1042E00001D00748010000B500F02EFF0022002396
:1042F00000BD02000B00002000217047000000D02C
:10430000FFFFFFFF002B00D0BDE0130C26D1002AD9
:10431000E7D080B4104F39667A66FFE7FFE730B424
:10432000040C7B6F396F1B0423433B66FFE7FFE7F9
:10433000FFE7C04684B27B6F3D6F1B0423433B669F
:10434000FFE7FFE7C04600232C042D0C7A6F386F7F
:1043500000196941B0BC7047000000D0F0B5944628
:104360000025140E01D112020835140F01D11201DB
:104370000435940F01D192000235D40F01D15200BF
:104380000135D40B0134254F7C66254C3C660E0C60
:1043900093B2FFE7FFE7FFE73C6F6643360C770316
:1043A000BE467343DF0B5B04C01AB941130C734361
:1043B000DB18C91ACE086643360CB64493B2734371
:1043C0001F0F1B01C01AB941130C73431F0B1B05B0
:1043D000C01AB941860D8F023E436643360C092D43
:1043E00024DB520A7243801A7703460A6643360C6E
:1043F00016235B1BDE40DF40BF1964466643821B09
:104400007046043506330100D940A840C01900D3D6
:104410000131A24206D20023F0BD0000000000D00E
:10442000FFFFFFFF121B0130F3D3F1E709277F1BCA
:10443000FE406446A2B27243801A00D20139220CB7
:104440007243130C1204821A99410B007046043512
:1044500013370100F940A840801900D30131002B27
:1044600002D1A2420AD2F0BD013000D30131121BA9
:10447000FAD2013BF8D1A24200D2F0BD013000D304
:104480000131121BF7E7F0B51C0C00D080E00CB432
:1044900000251C0A04D11B02160E334312020835F4
:1044A0001C0B04D11B01160F3343120104359C0B66
:1044B00004D19B00960F334392000235DC0B02D1EE
:1044C00092185B4101351C00971864410134464F36
:1044D0007C66464C3C660E0CFFE7FFE7FFE7C046F4
:1044E0003C6F6643360C7703BE4697B27743C01BDA
:1044F00000D20139C01B00D201399FB27743C91BDA
:10450000C91B170C77437E04FF0B801BB941CE08F3
:104510006643360C0C2D33DBB644120B1F053A43B1
:104520001B0B97B27743C01B00D201399FB2774370
:10453000C91B170C77433E043F0C801BB941860D05
:104540008F023E43664329277F1BFE400C3D774682
:10455000AF40BF1930BCA2B2ABB272437343801AF2
:104560009941220C7243130C1204801A99410200E3
:104570000B000137001BA941F9D2781E0021F0BDC4
:104580000C277F1BFE4077467F0BAF40FF19E0E70B
:1045900000245D1C07D0144F7D663966FFE7FFE7F6
:1045A000FFE7FFE73C6F95B29EB265436643401B51
:1045B000B141150C1E0C6543664336042F0C3E4377
:1045C0002D04401BB141994204D202000B0020008F
:1045D0000021F0BD01D19042F7D3801A99410134F6
:1045E0009942F2D3F6E70000000000D0FFFFFFFF82
:1045F000132370B51D78012D10D00BDD1948FFF77E
:1046000067FD194C01008022200000F0B7F8022D50
:1046100001D070BD144C154BA364FAE7134B124C38
:1046200023606360A360E36023616361A361E3616E
:1046300023626362A362E36223636363A363E3634E
:1046400023646364A364E36423656365A365E3652E
:1046500023666366A366E36623676367A367E3670E
:10466000A364D6E753440000300D002071460010CB
:1046700007B5604601880A0A0230DF2AFAD1C9B2BA
:10468000820804D3028840880004104300E00068D8
:10469000014A5050039007BD300D00205143434361
:1046A000C9188C46110C83B24B4310B4040C6143FF
:1046B00092B280B2504362431C041B0C001910BC20
:1046C00059411304120CC018514161447047000055
:1046D000132310B512481C78FFF7FAFC0100012CD7
:1046E0000AD003DD80220F4800F048F80E48FFF79B
:1046F000E7FC0E4B186010BD0A4C5422200000F05D
:104700003DF80B4B6365A365E36523666366A366AB
:10471000E36623676367A367E3672362E361E5E713
:1047200053460000300E00204C33000098AB0220AE
:104730003547001007B5604601880A0A0230DF2AB3
:10474000FAD1C9B2820804D3028840880004104319
:1047500000E00068014A5050039007BD300E002071
:1047600001480421014B1847B0090020E140001026
:10477000014B1B6818470000B0090020014B5B6823
:1047800018470000B0090020F0B546464F46D6460F
:104790008046C0B50E00171E3FDD4B1E9946214BCB
:1047A0000125002400209A460DE04B461B5D0D3B81
:1047B0005A425341325DDBB20A2A0BD02B0001343E
:1047C00001359F421ADD002CEFD14346325D1B7C40
:1047D0000A2AF3D1002BF1D1A04204DA4346211A70
:1047E0001B6830189847434650461B68022198477B
:1047F000013428002B0001359F42E4DC874204DDB0
:104800004346391A1B6830189847F619013E337829
:104810000D3B5A42534142461374E0BCBA46B1467E
:10482000A846F0BDF4870010F0B557464546DE4671
:104830004E46D023E0B51B061C68364B83B00700FC
:104840000D00180001A990469A4600F09DFC814693
:10485000002808D1019B64B29C4204D0504600F06D
:10486000ABFC012399466B1C03D1380000F034FCEB
:104870000500294B1C68002C2FD00A23274E9B468D
:1048800002E0E468002C28D02268002AF9D03368BE
:10489000002B01D0A342F4D1637C002B27D02A0047
:1048A00039002000FFF770FF4346002BE9D06B462C
:1048B0005A461A71637C002B1DD0237C002B23D019
:1048C0000121236801A898476B461B790D3B5A428A
:1048D00053412374E468002CD6D14B46002B0FD1F2
:1048E00003B0F0BCBB46B246A946A046F0BD2900C5
:1048F00038009047D8E70121236801A89847C0E70E
:10490000504600F019FCEBE7022105482368984760
:10491000DAE7C046E4090020787B02207C7B022095
:10492000F487001010B582B06B4604000022D81D39
:1049300001210470FFF778FF200002B010BDC046CF
:1049400070B5040000F0C8FB012201000500200042
:10495000FFF76AFF084B1C68002C06D06368002B29
:1049600005D09847E468002CF8D1280070BDE468B1
:10497000002CF3D1F9E7C046787B02200D4A13687A
:10498000002B13D0834202D109E0984208D01A00CC
:10499000DB68002BF9D1002900D0D06070471A00E5
:1049A0000029FBD1DB68D360C160F7E70029F5D0AF
:1049B0001060F3E7787B022010B500F043F810BDDB
:1049C000F0B50D1E15DD0E4B0D271A680D4B451960
:1049D000D31859424B410C495B005E5E202104789C
:1049E000A64207D093691942FCD101301460A84255
:1049F000F5D1F0BD93691942FCD11760F2E7C046CA
:104A0000B4AB02200080FCBFB0AB022030B5040084
:104A10000D1E12DD00201021094B013C1A6893691C
:104A2000194208D1013093691942FCD1136823540B
:104A30008542F4D130BD0028FCD103204042F9E783
:104A4000B4AB0220E12110B50B4B0C481B780C4B8A
:104A500049021B780B4B1860FDF73CFF0221002038
:104A6000FDF7E4FD02210120FDF7E0FD01210648EC
:104A7000FFF784FF10BDC046AC8800100040034023
:104A8000B0880010B4AB0220C009002003BDC046AE
:104A900010B50400FFF754FAA04710BDD022022140
:104AA0001206136D1942FCD0506540BF7047C046D6
:104AB000D0221206136DDB0704D4012120BF136D31
:104AC0001942FBD0D0231B06986D704770B50123A7
:104AD0000025002486B005900F20029300940195D4
:104AE00003920491FFF7BAF8002105000F20FFF7A9
:104AF000A3F8D0230026012102201B06002C14D08D
:104B00001A6D1042FCD05C6540BF1A6D114203D192
:104B100020BF1A6D1142FBD09A6DA2420AD0002626
:104B20006C46B200A458E9E79A6D1A6D1142FBD1A8
:104B300040BFE5E70136052EF2D929000F20FFF727
:104B40007BF806B070BDC0460B4B0C4A10B59342C3
:104B500001D201235B421900094A985004329B504C
:104B6000084A094B0948CA50094B9A68044B9C46AD
:104B70006144FFF7ABFF10BD0008042000000420D3
:104B8000F4070000914A0010FC0700008D4A001055
:104B900000ED00E001230121084A1360084A136078
:104BA000084A080093689843FBD1074A11608021A6
:104BB000490013680B42FCD07047C04600E000403B
:104BC00000F0004000C0004000C004400B4B10B596
:104BD0009C46604443425841094A840082B0009296
:104BE00008482200E31CFDF705FE844202DC001B9E
:104BF00002B010BD01204042FAE7C0460000D0AF2D
:104C000038880010C4AB0220F0B5D6464F46464661
:104C10008846C0B505240600FDF7B4FD43461F795C
:104C20001C57284B8146F01843425841264B9A4660
:104C300083009C4653466246985801222023BA407E
:104C4000DB1B013A002C32DB9C422DDCA24015001C
:104C5000104229D1002F1AD043465A7819781202EF
:104C6000114342469B78D2781B040B4312061A4329
:104C70009046002241465300C95A4B0B00D10919F6
:104C8000131912339B00013299519742F2D85346BF
:104C9000624605439D504846FDF780FD2000E0BC7C
:104CA000BA46B146A846F0BD0848FEF743FE002BC1
:104CB00002DAF9E7013BF7D315009D401C000542DD
:104CC000F8D1C7E70000D0AFF87902205C88001067
:104CD000F0B5DE4657464E4645461C004B00E0B553
:104CE0008B461D0084465D44ED0065442F0085B071
:104CF000DC3703933B68160002900193002C19D017
:104D00008023DB049A4601239946E0231B02984640
:104D1000D8352000FFF7CEF95246430113433B60DC
:104D200033004A46C3401340424613432B60631E80
:104D30001C40EED1039B5B44D800029B9C46019B28
:104D40006044DC30036005B0F0BCBB46B246A94607
:104D5000A046F0BDF0B5DE4657464E4645461C001F
:104D60004B00E0B58B461D0084465D44ED00654474
:104D70002F0085B0DC3703933B6816000290019347
:104D8000002C18D08023DB049A4601239946124B4D
:104D9000D83598462000FFF78DF95246430113435A
:104DA0003B6033004A46C3401340424613432B60E6
:104DB000631E1C40EED1039B5B44D800029B9C46C3
:104DC000019B6044DC30036005B0F0BCBB46B246DA
:104DD000A946A046F0BDC04680E00000F0B54E46B2
:104DE0004546DE4657468A464900E0B50D008046F6
:104DF0005544ED0045448946290009AC2678DC314C
:104E0000741EA64108687442844614481F268346CF
:104E100026405E44052B0CD9A0201F274005D8351D
:104E2000540104430532053B0C603A402E60052BCB
:104E3000F6D849465144C900414452019B061343E8
:104E40000A000800DC3213606346D8300660136045
:104E5000F0BCBB46B246A946A046F0BD80E00000CB
:104E6000F0B501258D400468AC434D0004606C181A
:104E7000E40004192600C836002B2AD01F68DC3451
:104E800037605F6877609F68DB68B76023606D1884
:104E9000EB001D008024D035451964012C4380258A
:104EA0002D0625602560114C0D1D8C408460012469
:104EB0002700AF403D0008318C401F2106680A40A2
:104EC0003543056005682C430460C018D830026083
:104ED000F0BD80277F023760F8277F027760C02708
:104EE000DC343F03B7602360D1E7C0460101010114
:104EF00000B5054B83B00100009300220B2303484B
:104F0000FDF778FC03B000BD70880010BCAB022038
:104F1000F0B557464E464546DE4690460022E0B57F
:104F200083B01E000CAB1B7884469A460368DA6691
:104F300001325960DA66002E4FDD51464A40520276
:104F400001928022914632008025771E002046463D
:104F500010219046AD000024002804D16246147947
:104F6000621E9441A40200229346B8421AD0325CD9
:104F700022435C4622431A615A6B1142FCD04A46D6
:104F80009C58002C11D1B84222D001308045E2D18A
:104F9000634652461A7103B0F0BCBB46B246A946FE
:104FA000A046F0BD019A9346E1E75A6D012293466F
:104FB0005A6B2A42FCD01A6E5A46002AE5D0002CC1
:104FC00003D0E30701D42307E2D402204042DFE705
:104FD0005246002AD9D1D346EAE70020D8E7C04696
:104FE000F8B557468246384B454653445A425341DA
:104FF000802292029446DE464E465B421B0C334AA8
:105000001B046344E0B51360314A0D00314913605D
:1050100018008A6890438146FAD10620FEF706FE02
:10502000804680200221EF0D6E02AB0DAA024000E7
:1050300005E0904507D392197B4181423FD00C0097
:105040000231002BF5D0802627023F1B760002E0BC
:105050003F1B012E35D039004046B346013EFFF7D5
:1050600089F88542F4D25946330299466143534642
:105070004A461C611B6850465340FF2212021340EF
:105080008022520102431360036807205840CF2357
:10509000034013605246802303209B0124321A43AD
:1050A00010605246101D1843022303604046FFF76C
:1050B00061F8F0BCBB46B246A946A046F8BD0C005C
:1050C000C1E72100D3E7C0460040FCBF00E000403C
:1050D00000F0004000C0004010B583070AD0030074
:1050E000032102E001330B4205D01A78002AF9D1DE
:1050F000181A10BD030019680C4A0D4C8A188A430F
:1051000022420FD15968094A04338A188A4322423D
:1051100008D15968054A04338A188A432242F1D0DB
:1051200000E001331A78002AFBD1E1E7FFFEFEFE22
:1051300080808080F8B5C04601B40248844601BC36
:10514000604700BF7902002001B40248844601BCD8
:10515000604700BF4104002001B40248844601BCFE
:10516000604700BF4504002001B40248844601BCEA
:10517000604700BFD103002001B40248844601BC4F
:10518000604700BF4104002001B40248844601BCCE
:10519000604700BF1D02002001B40248844601BCE4
:1051A000604700BF6103002001B40248844601BC8F
:1051B000604700BFD502002001B40248844601BC0C
:0851C000604700BFBD010020A3
:1051C8005061636B65742070726F63657373696E89
:1051D8006720636F72652069736E27742066617338
:1051E8007420656E6F756768203A280A0000000011
:1051F80050726F6261626C79206F766572666C6F4F
:105208007765642E205468697320636F646520692C
:10521800736E2774206661737420656E6F75676896
:10522800203A2800447265616D6361737420436F8E
:105238006E74726F6C6C65722020202020202020F4
:105248002000000050726F64756365642042792005
:105258006F7220556E646572204C6963656E736564
:105268002046726F6D205345474120454E544552A4
:105278005052495345532C4C54442E202020200092
:1052880056697375616C204D656D6F7279202020A9
:105298002020202020202020202020202000000066
:1052A800507572752050757275205061636B20209F
:1052B8002020202020202020202020202000000046
:1052C800080B0010B80B0010080B0010080B00109A
:1052D800080B0010480B0010080B0010C20B001040
:1052E800A00B0010CA0B0010A40B00102C0C00100F
:1052F800060C0010080B0010D80B0010080B00104B
:10530800040D0010080B0010080B0010080B00100B
:10531800480B0010080B0010FC0C0010A00B00102C
:10532800080B0010D00C0010B80C0010800C0010F6
:10533800540C00107212001032150010FC120010EC
:105348007615001048150010E612001072120010B1
:10535800B8120010821200107A120010B012001059
:1053680046120010000000000400000001000000C8
:105378000200000004000000000400000500000016
:1053880000020000060000001000000007000000F6
:105398002000000008000000400000000900000094
:1053A800800000000A00000008000000BC53001044
:1053B80002FF0000C7200240C853001004FF00008D
:1053C800202007C0A02007C0D853001004FF000009
:1053D800212007C0A12007C0E85300101DFF0000CE
:1053E80080F0A09C207083F043F002FC42AC861C45
:1053F80003F642AC416001E5700042B602FC1316A8
:1054080042A600EC42B601764A0B01EC42BC42AC23
:1054180000EC01EC00EC01EC03FC000049434F4EAA
:10542800444154415F564D530000000055555555B1
:105438005555555555555555555555550100FFFF69
:10544800FF00000000000000000000000000000055
:1054580000000000000000000000000020210302FE
:10546800090000010000000000000000FF0000002B
:10547800FF00FE000100FD000D000000C8001F0035
:10548800000080002E2F75706C6F61642F65623785
:105498006161303620000000A0000000000000001C
:1054A8000000000000000000007E7F00007E7F00FA
:1054B80001FFFFC0020000200200002002000020BF
:1054C8000200002002000020027FFF20027FFF2050
:1054D800027FFF20027FFF20027FFF20027FFF2044
:1054E800027FFF20027FFF20027FFF20027FFF2034
:1054F800027FFF2002000020020000200200D820C6
:105508000238DBA0027C03A0027C73A0027C70201E
:1055180002387020020000200100004000F00780DF
:10552800000FF800FFFFBBFB00F080F088F80000D8
:105538000000000000000000000000000000000063
:105548000000000000000000000000000000000053
:105558000000000000000000022222200222222275
:105568000000000000000000022222200222222265
:105578000000000000000002222222222222222211
:105588002200000000000021111111111111111148
:10559800112000000000002111100000000000117F
:1055A8001120000000000020100000000000000092
:1055B8001020000000000020100000000000000083
:1055C80010200000000000201011111111111110FD
:1055D800102000000000002014222222222222246F
:1055E80010200000000000201233333333333332ED
:1055F80010200000000000201233333333333332DD
:1056080010200000000000201233333333333332CC
:1056180010200000000000201233333333333332BC
:1056280010200000000000201233333333333332AC
:10563800102000000000002012333333333333329C
:10564800102000000000002012333333333333328C
:10565800102000000000002012333333333333327C
:10566800102000000000002012333333333333326C
:1056780010200000000000201422222222222224CE
:10568800102000000000002010111111111111103C
:1056980010200000000000201000000000000000A2
:1056A80010200000000000201011100044044000E9
:1056B8001020000000000020112221004404414273
:1056C80040200000000000201222221000000122C9
:1056D8002020000000000020122222100424114281
:1056E8004020000000000020122222100222100098
:1056F80010200000000000201122210004241000C6
:105708001020000000000020100000000000000031
:10571800102000000000000211000000000000013D
:1057280012000000000000002222111111111222A3
:105738002000000000000000000022222222200099
:105748000000000000000000000000000000000051
:105758000000000000000000000000000000000041
:105768000000000000000000000000000000000031
:105778000000000000000000000000000000000021
:105AC80008003020382020200800000000000000D6
:105AD80000000000000000000000000000000000BE
:105AE80000000000000000000000000000000000AE
:105AF800000000000000000000000000000000009E
:105B0800000000000000000000000000000000008D
:105B1800000000000000000000000000000000007D
:105B2800000000000000000000000000000000006D
:105B3800000000000000000000000000000000005D
:105B4800000000000000000000000000000000004D
:105B5800000000000000000000000000000000003D
:105B6800000000000000000000000000000000002D
:105B7800000000000000000000000000000000001D
:105B880040408060806070603020080000000000A5
:105B980000000000000000000000000000000000FD
:105BA80000000000000000000000000000000000ED
:105BB80000000000000000000000000000000000DD
:105BC80000000000000000000000000000000000CD
:105BD80000000000000000000000000000000000BD
:105BE80000000000000000000000000000000000AD
:105BF800000000000000000000000000000000009D
:105C0800000000000000000000000000000000008C
:105C1800000000000000000000000000000000007C
:105C2800000000000000000000000000000000006C
:105C38000000000000000000000000000000180044
:105C4800706090808880786038200800000000002C
:105C5800000000000000000000000000000000003C
:105C6800000000000000000000000000000000002C
:105C7800000000000000000000000000000000001C
:105C8800000000000000000000000000000000000C
:105C980000000000000000000000000000000000FC
:105CA80000000000000000000000000000000000EC
:105CB80000000000000000000000000000000000DC
:105CC80000000000000000000000000000000000CC
:105CD80000000000000000000000000000000000BC
:105CE80000000000000000000000000000000000AC
:105CF800000000000000000000000000000030204C
:105D080080608880604028200800000000000000B3
:105D1800000000000000000000000000000000007B
:105D2800000000000000000000000000000000006B
:105D3800000000000000000000000000000000005B
:105D4800000000000000000000000000000000004B
:105D5800000000000000000000000000000000003B
:105D6800000000000000000000000000000000002B
:105D7800000000000000000000000000000000001B
:105D8800000000000000000000000000000000000B
:105D980000000000000000000000000000000000FB
:105DA80000000000000000000000000000000000EB
:105DB8000000000000000000000000000000484053
:105DC80088807860202000000000000000000000AB
:105DD80000000000000000000000000000000000BB
:105DE80000000000000000000000000000000000AB
:105DF800000000000000000000000000000000009B
:105E0800000000000000000000000000000000008A
